:020000040800F2
:10800000407E0120A5810008410A01087FF4000894
:10801000690901087F930008254901080000000054
:10802000000000000000000000000000071401082C
:108030006D96000800000000410B0108651801085A
:10804000BF810008BF810008BF810008C711010877
:10805000BF810008BF810008BF810008BF81000800
:10806000BF810008BF810008BF810008BF810008F0
:10807000BF810008BF810008FD9500080D9600082B
:108080001D9600082D960008BF810008BF810008DA
:10809000BF810008BF810008BF810008BF810008C0
:1080A000BF810008BF810008BF810008BF810008B0
:1080B000D9190108ED190108BF810008BF81000826
:1080C000BF810008BF810008BF810008BF81000890
:1080D000BF810008BF8100084D260108BF8100084C
:1080E000BF8100083D110108BF810008BF81000861
:1080F000BF810008BF810008BF810008BF81000860
:10810000BF810008BF810008BF810008BF8100084F
:10811000BF810008BF810008BF810008BF8100083F
:10812000BF810008BF810008BF810008BF8100082F
:10813000BF8100085D9400086D9400087D940008DC
:10814000BF810008BF810008BF8100087D0A0108C7
:10815000BF810008BF810008BF810008BF810008FF
:10816000BF810008BF810008BF810008BF810008EF
:10817000BF810008BF810008BF8100080000000027
:10818000BF810008BF810008DFF814D000F0B6FC02
:1081900000F0BCF800480047D948020800F058FB3E
:1081A000407E01200648804706480047FEE7FEE77C
:1081B000FEE7FEE7FEE7FEE7FEE7FEE7FEE7FEE797
:1081C00089190108898100082DE9F04117460E46FA
:1081D000054633B107FB0354E41B2046B047A542D4
:1081E000FAD1A5F10800BDE8F0812DE9F05F054660
:1081F000002092469B4688460646814640241BE066
:10820000284641464746224600F0FBFA53465A4666
:10821000C01A914110D311461846224600F0E2FAE6
:108220002D1A67EB01084F4622460120002100F07D
:10823000D9FA17EB00094E41201EA4F10104DFDC3E
:10824000484631462A46434600F000B830BCBDE8F7
:10825000C09F2DE9F0410024061B254671F1000660
:1082600005DA01240027D0EB070067EB0101161E99
:1082700073F1000605DA0027D2EB0702012567EB50
:108280000303FFF7B2FF86460E4617469C46AC42F4
:1082900004D00025D0EB050E65EB010624B10020CB
:1082A000D2EB000760EB030C704631463A4663465A
:1082B000BDE8F08140EA01039B0703D009E008C94B
:1082C000121F08C0042AFAD203E011F8013B00F89B
:1082D000013B521EF9D27047D2B201E000F8012BE7
:1082E000491EFBD270470022F6E710B513460A4636
:1082F00004461946FFF7F0FF204610BD421C10F857
:10830000011B0029FBD1801A7047000070B5054C95
:10831000054D03E0206820448047241DAC42F9D17C
:1083200070BD0000887C0208A87C02082DE9F0419D
:10833000074615460E4610201CF0F6FB04000AD036
:108340006760C4E9026500F07FFA0168216004609B
:108350000020BDE8F0810120FBE72DE9FE4F8046BB
:1083600081EA0300C00F0C46009021F0004123F089
:108370000045B8EB0200A94105D24046214690468F
:108380001C460B46024623F00040104347D0270D01
:10839000C7F30A00C3F30A510290401A0190402823
:1083A0006BDAC3F3130040F4801B0098924620B1AF
:1083B0000023D2EB030A63EB0B0B01985946C0F183
:1083C0004002504600F00EFA06460D465046594609
:1083D000019A00F026FA10EB08006141002487EAB8
:1083E000115284EAE7731A4340D0009A62B3019AAB
:1083F000012A4FEA075215DC001B61EB02014FF026
:10840000004202EA0752CDE90042001C41F580110A
:1084100032462B4600F083FA03B000F045B84046E0
:108420002146F9E7001B61EB0201001C41F58013B6
:1084300000185B412018A2F5001747EB030140EA42
:10844000D570B6196D4111E06D084FEA360645EA60
:10845000C0754FEA0752001B61EB0201001C41F599
:10846000801149084FEA30000019514132462B462D
:1084700003B000F01CB800F043BA0098012240009D
:108480000023D0EB020263EBE073009821464FEA31
:10849000E074B8EB000061EB0401E9E783F000430E
:1084A0005BE781F0004158E730BCBDE8C08F30BCCD
:1084B000BDE8C04FFFF7DFBF2DE9FE4F81EA03049F
:1084C00004F0004421F0004100944FF0000B23F031
:1084D000004350EA01045ED052EA03045BD0C3F3C8
:1084E0000A54C1F30A552C44A4F2F3340194A0FBBE
:1084F0000254C1F3130141F48011C3F3130343F495
:10850000801301FB024400FB034E840A970A44EAED
:10851000815447EA8357A4FB076802958D0A05FB3F
:1085200007854FEA932C04FB0C542705029D4FEA64
:10853000065847EA1637B5EB08056EEB070C870EB1
:10854000920E47EA811742EA8312A7FB0201B6EBBB
:108550000B0164EB00042B0D43EA0C335E1844EB73
:108560001C50DA465146E7FB0201C5F313044FEAFB
:108570000B3343EA14534FEA0432019C43EA0603E7
:10858000A4F10C040294009CCDE900B400F0C7F9FA
:1085900003B000F003B800200146F9E730BCBDE8A5
:1085A000C08F2DE9F04D81EA030404F0004B21F067
:1085B000004514464FF0000A23F0004150EA05023E
:1085C00020D054EA01021DD0C5F30A570246C5F374
:1085D0001303C1F31300C1F30A5640F4801543F4AA
:1085E0008013A7EB0608101BD64608F2FD3873EB84
:1085F000050002D308F1010801E092185B41B8F1CF
:10860000000F03DA00200146BDE8F08D00204FF492
:108610008011064684460EE0171B73EB050705D351
:10862000121B63EB050306434CEA010C49084FEAB1
:10863000300092185B4150EA0107EDD152EA030085
:1086400012D082EA040083EA0501084305D0101B1A
:10865000AB4106D20122002306E000224FF0004386
:1086600002E06FF0010253101AEB06004CEB0851C8
:1086700010EB0A0041EB0B01BDE8F04D00F040B9F2
:108680000EB5C10F80EAE0700844CA07002140F22D
:1086900033438DE80E000A460B4600F040F903B064
:1086A00000BD0EB540F2334102910021CDE9001129
:1086B0000A460B4600F033F903B000BD70B5C1F3B4
:1086C0000A5201F000450024C1F3130140F2FF33C8
:1086D00041F480119A4201DA002070BD40F2334328
:1086E0009A42A2F2334203DC524200F08AF800E0E0
:1086F00090402C43F1D0404270BD00F0004230F079
:1087000000400AD0C10D01F56071C0F3160042EAC5
:108710000151C208400711437047002001467047CD
:1087200030B5041E71F1000404DB4FF000444042F8
:1087300064EB0101141E73F1000405DB1C464FF0CD
:108740000043524263EB04038B4208BF824230BDB8
:1087500030B5041E71F1000404DB4FF000444042C8
:1087600064EB0101141E73F1000405DB1C464FF09D
:108770000043524263EB0403994208BF904230BD6C
:1087800001F0004330B421F0004150EA010206D06C
:108790000A0DA2F56072C1F31301002A02DC30BC9D
:1087A00000207047440F44EAC104C100E01830BC07
:1087B00000EBC25000F06DB830B50B46014600200A
:1087C0002022012409E021FA02F59D4205D303FA93
:1087D00002F5491B04FA02F52844151EA2F1010214
:1087E000F1DC30BD202A04DB203A00FA02F100203F
:1087F00070479140C2F1200320FA03F319439040DF
:108800007047202A04DB203A21FA02F00021704749
:1088100021FA02F3D040C2F12002914008431946E8
:108820007047202A06DBCB17203A41FA02F043EAD0
:10883000E07306E041FA02F3D040C2F12002914019
:10884000084319467047000000487047440500205F
:108850002DE9F0410646FFF7F7FF8046454613E055
:1088600016B1E068B0420ED120682860D4E9010159
:10887000D8F80070884720461AF06EFCD8F800003F
:10888000B842EBD100E025462C68002CE8D1BDE8C9
:10889000F0810029A8BF7047401C490008BF20F0A4
:1088A0000100704710B4B0FA80FC00FA0CF050EAF6
:1088B000010404BF10BC704749B1CCF1200421FA77
:1088C00004F411FA0CF118BF012121430843A3EB72
:1088D0000C01CB1D4FEA00614FEA102042BF00207F
:1088E00010BC704700EBC35010440029A4BF10BC5B
:1088F0007047401C490008BF20F0010010BC7047C1
:1089000010B5141E73F1000408DA401C41F1000197
:1089100092185B411A4301D120F0010010BD2DE9EE
:10892000F04D92469B4611B1B1FA81F202E0B0FAE5
:1089300080F220329046FFF755FF04460F4640EA8A
:108940000A0041EA0B0153465A46084313D0114628
:1089500053EA010019D0C8F140025046FFF751FF19
:1089600005460E46504659464246FFF73BFF084330
:1089700005D0012004E020463946BDE8F08D0020F6
:10898000054346EAE0762C4337430A986305E40A38
:10899000A0EB08000022FD0A44EA47540A3002D541
:1089A00000200146E9E7010510196941DDE90845A4
:1089B00000196941BDE8F04DA2E770B521F0004310
:1089C00003430CD0C1F30A550024D5EB040564EB36
:1089D0000403D617AD1AB34102DB0020014670BD77
:1089E000201841EB025170BD2DE9F04D00231A46CD
:1089F0001B1A8A4103DB00200146BDE8F08DC1F35C
:108A00000A52C1F3130141F480154FF0000BD10756
:108A100002D100186D41521E0027044640F2FF119A
:108A2000384601EB620A3E468046024600204FF47B
:108A30008011FFF7E6FEC2197141BB1846EB010039
:108A4000B4EB030C75EB000C04D3E41A65EB0005E2
:108A500017460E46241908F101006D41804634285E
:108A6000E3DDF91946EB0600091BA84103D24FF0DC
:108A7000FF32134601E0002213461BEB070046EBD2
:108A80000A51BDE8F04DFFF73BBF00207047AFF340
:108A9000008010B500F00DF8016919B100220261E3
:108AA000884701E080688047AFF3008010B5AFF3DE
:108AB000008070B500F038F804680546A4B920209D
:108AC0001CF032F8040011D0094900202C60C4E9E0
:108AD00000010849A1602073206160610649A0611E
:108AE00009B100F029F8E061204670BDAFF30080C5
:108AF00000000000AD8A000800000000064C074D91
:108B000006E0E06840F0010394E80700984710345D
:108B1000AC42F6D3FFF73CFB687C0208887C020875
:108B200070470000034870470248001D011F88601D
:108B3000001D70475005002010B588201BF0F4FF81
:108B4000002801D00021017010BD802902D808B191
:108B5000017809B100207047012100F8081B704717
:108B600018B100F10802914201D0002070470021A5
:108B70000170704770B58C1810F8015B15F0070391
:108B800001D110F8013B2A1106D110F8012B03E0A6
:108B900010F8016B01F8016B5B1EF9D12B0705D4AE
:108BA0000023521E0DD401F8013BFAE710F8013BF7
:108BB000CB1A921C03E013F8015B01F8015B521E13
:108BC000F9D5A142D8D3002070BD000010B50446ED
:108BD00006236C2202490348FFF7F6FA10BD000095
:108BE000579F0108D45D012010B5044606231022CA
:108BF00002490348FFF7E8FA10BD000013A6010878
:108C0000987101202DE9F05F044688464FF0000975
:108C10004746206806F01BFD8246206806F0FEFCF1
:108C20008346BAF1000F02D1BBF1000F6ED020686D
:108C3000C06800F0007000B3607E01281DD1207E66
:108C400001281AD101270FE0314881450AD3606D10
:108C500040F010006065A06D40F00100A0650120AB
:108C600000F05AB809F1010920680068C0F38010CB
:108C70000028E9D0402021680860022F10D0206829
:108C800006F0E5FC60B1206806F0CDFC40B9206834
:108C90008168204A114041F01001816000BF00BF8F
:108CA000012F10D0206806F0B9FC60B1206806F0F2
:108CB000BAFC40B920688168164A114041F0200191
:108CC000816000BF00BF022F03D0032F03D10C250A
:108CD00003E0082501E0042500BF00BF02F0D6FE36
:108CE00006460EE002F0D2FE801B052809D9606D11
:108CF00040F010006065A06D40F00100A06501200B
:108D0000AEE72068806828400028EBD10020A7E764
:108D1000000040A3C0FFFF7F30BCBDE8C09F000043
:108D200070B50446206806F07EFC0646206806F012
:108D30007FFC70B36EBB2068806800F00D000128D6
:108D40000AD120688168174A1140891C816000BFE0
:108D500003202168086009E0606D40F01000606544
:108D6000A06D40F00100A065012070BD02F08EFEF4
:108D700005460FE002F08AFE401B02280AD9606D0A
:108D800040F010006065A06D40F00100A06501207A
:108D9000EBE705E02068806800F001000028E9D1D9
:108DA0000020E2E7C0FFFF7F70B50446206806F0B0
:108DB0003FFC88BB206880681849084048B1606D56
:108DC00040F010006065A06D40F00100A06501203A
:108DD00070BD206806F00CFC02F058FE054615E058
:108DE000206806F025FC10B9206806F001FC02F0AE
:108DF0004DFE401B022809D9606D40F010006065EF
:108E0000A06D40F00100A0650120E1E72068006846
:108E100000F001000028E3D00020D9E73F000080E7
:108E200010B511217E201CF076FA10BD10B510216E
:108E30007E201CF070FA10BD10B515217E201CF0AC
:108E40006AFA10BD10B514217E201CF064FA10BD22
:108E50007CB506460C46154692208DF80000062289
:108E6000012168461CF088FB9DF800009DF8011068
:108E700040EA012000B230809DF802009DF8031006
:108E800040EA012000B220809DF804009DF8051002
:108E900040EA012000B228807CBD10B500201CF003
:108EA0000FFA10BD7CB506460C4615468C208DF891
:108EB00000000622012168461CF05EFB9DF80000C0
:108EC0009DF8011040EA012000B230809DF80200B8
:108ED0009DF8031040EA012000B220809DF80400B4
:108EE0009DF8051040EA012000B228807CBD0000FA
:108EF00008B5002035490870012019F01CFEB62184
:108F00007E201CF008FA012019F015FE7F201CF0CD
:108F1000D7F9012019F00FFE00F06CF800B908BD78
:108F200011217E201CF0F7F9012019F004FE002029
:108F3000009009E0012019F0FEFD0098401C00900F
:108F40000098642800DDEAE70222042103201CF0D7
:108F5000CEF90128EED115217E201CF0DCF901208C
:108F600019F0E9FD0020009009E0012019F0E3FD6F
:108F70000098401C00900098642800DDCFE7022292
:108F8000114603201CF0B3F90128EED1282142201C
:108F90001CF0C1F9282140201CF0BDF9032000F08D
:108FA00020F80C2000F014F8FF2155201CF0B3F934
:108FB000F02156201CF0AFF9002157201CF0ABF92E
:108FC00000F018F80149087000BFA8E770040020FD
:108FD00010B5044604230022214641201CF0AFF9BD
:108FE00010BD10B5044603230022214643201CF087
:108FF000A6F910BD10B5FFF750FFD12801D101200F
:1090000010BD0020FCE70000F0B52DED048B83B00F
:1090100004460E469FEDC50AC54880ED000A9FED47
:10902000C30AC44880ED000A9FEDC30AC34880ED1F
:10903000000A9FEDC10AC24880ED000A002574E0D5
:1090400005EBC50101EB410104EB810010F01EFFAF
:1090500005EBC50000EB400004EB800090ED000A3A
:10906000B348D0ED000AB4EEE00AF1EE10FA0ADDE2
:1090700005EBC50000EB400004EB800090ED000A1A
:10908000AB4880ED000A05EBC50000EB400004EBA7
:10909000800090ED000AA948D0ED000AB4EEE00A85
:1090A000F1EE10FA0AD205EBC50000EB400004EB2C
:1090B000800090ED000AA14880ED000A05EBC50094
:1090C00000EB400004EB800090ED010A9948D0EDE0
:1090D000000AB4EEE00AF1EE10FA0ADD05EBC50075
:1090E00000EB400004EB800090ED010A914880ED18
:1090F000000A05EBC50000EB400004EB800090ED9A
:10910000010A8F48D0ED000AB4EEE00AF1EE10FA41
:109110000AD205EBC50000EB400004EB800090EDA7
:10912000010A874880ED000A6D1CB54288DB804843
:1091300090ED000A8148D0ED000A30EE609A7D483B
:1091400090ED000A7E48D0ED000A30EE608A69EEAC
:10915000090A48EE080AB0EE600A15F03DFC7948AD
:1091600080ED000A012E03DA03B0BDEC048BF0BDE4
:10917000022E09D174490978E068884204D004F1CC
:109180006C01204610F040FE032E47D1371F9FEDA3
:109190006F0AF0EE408A002520E005EBC50101EBE7
:1091A000410104EB810010F071FE05EBC50101EBFC
:1091B000410104EB81000BF0E3FBB4EEE80AF1EEB1
:1091C00010FA0AD22F4605EBC50101EB410104EB71
:1091D00081000BF0D5FBF0EE408A6D1CB542DCDB64
:1091E000002F00DAC0E7002F08DD07EBC70000EB17
:1091F000400004EB8001204610F006FE94ED1C0AAE
:10920000D4ED370AB4EEE00AF1EE10FA05DD04F110
:10921000D80104F16C0010F0F7FD00BF042E75D1E9
:109220000020009001900290464890ED000A6A46A6
:109230003146204613F02CFC0546002D00DA93E75A
:1092400045B105EBC50000EB400004EB8001204672
:1092500010F0DAFD0020009001900290344890ED6B
:10926000000A8DED000A374890ED000A6A46314643
:10927000204613F00DFC0546002D00DA74E7012DA1
:1092800009D005EBC50000EB400004EB800104F1C0
:109290006C0010F0B9FD002000900190029024486D
:1092A00090ED000A8DED000A224890ED000A8DED48
:1092B000010A244890ED000A6A463146204613F020
:1092C000E7FB0546002D00DA4EE7022D09D005EB3D
:1092D000C50000EB400004EB800104F1D80010F061
:1092E00093FD0020009001900290124890ED000A3A
:1092F0008DED010A134890ED000A6A46314620467A
:1093000013F0C6FB0546002D01DA2DE70CE0032D16
:1093100009D005EBC50000EB400004EB800104F52B
:10932000A27010F071FD00BF00BF1DE700007AC4FD
:10933000B8040020BC04002000007A44C0040020CF
:10934000C4040020B4040020D1040020286B6E4E19
:1093500000B585B0012251034FF0904002F090FB20
:109360004FF40050009001200190002002900390E3
:1093700069464FF0904002F079FA05B000BD00BF99
:10938000FEE70346042B15D007DC7BB1012B0ED082
:10939000022B0DD0032B12D10BE0202B0BD0212B55
:1093A0000AD0222B09D0232B09D107E008E007E0DF
:1093B00006E005E004E003E002E001E000E000BFB9
:1093C00000BF0020704700207047000010B5002249
:1093D0000449054809F081FA0449034809F076FA7E
:1093E000002010BDB8390120F42A0120B835012031
:1093F00070B504460D46294620461DF013FF214650
:10940000034809F063FA024809F03CFA002070BDF5
:10941000F42A01202DE9F04104460D4600260A48B1
:10942000D0F89072D7F8140210B10120BDE8F08195
:109430002A462146044809F050FA034809F0D1FAB7
:1094400006463046F2E70000F42A0120C0E9021285
:1094500000210161416001607047000010B50248C1
:1094600001F028FD10BD00003C26012010B5024887
:1094700001F020FD10BD00009026012010B502482B
:1094800001F018FD10BD0000E426012070B504466F
:10949000A56A03202865284601F054FA70BD70B50E
:1094A0000446A56A284601F0C5FB70BD70B50446A8
:1094B000A56A284601F022FC70BD00000146184A4A
:1094C000914201D100202AE0154A2032914201D177
:1094D000012024E0124A4032914201D102201EE0D4
:1094E0000F4A6032914201D1032018E00C4A8032C9
:1094F000914201D1042012E0094AA032914201D1E7
:1095000005200CE0064AC032914201D1062006E057
:10951000034AE032914201D1072000E00020704769
:1095200000600140416B31B90168096841F40031C4
:109530000268116025E00168096821F001010268F4
:1095400011600168096841F4002102681160016836
:10955000096841F001010268116090F84C1003297C
:109560000FD1816B29B90168096841F002010268D5
:10957000116090F84010012901D1416C00E00121F7
:10958000816490F84C10012901D1022100E00421EE
:1095900080F84C1070470168096821F001010268E9
:1095A0001160416B012905D10168096821F400218E
:1095B000026811600168096841F0010102681160E8
:1095C00090F84C1004290FD1816B29B90168096802
:1095D00041F002010268116090F84010012901D1A8
:1095E000416C00E00121816490F84C10022901D106
:1095F000012100E0032180F84C10704710B50248AB
:1096000001F006FE10BD0000E027012010B5024861
:1096100001F0FEFD10BD00002828012010B5024811
:1096200001F0F6FD10BD00007028012010B50248C1
:1096300001F0EEFD10BD0000AC2A012030B590F81D
:10964000444004F01C050124AC40056C6C600468C7
:1096500063608468102C04D10468A2600468E1602F
:1096600003E00468A1600468E26030BD704710B593
:10967000044622464FF400514FF0904002F000FAA9
:1096800010BD000010B504462DED028B9FED118A30
:10969000F0EE480AB0EE480A11F03AFE84ED040AF2
:1096A000C4ED050AF0EE480AB0EE480A11F030FEAB
:1096B00084ED060AC4ED070AF0EE480AB0EE480A47
:1096C00011F026FE84ED080AC4ED090ABDEC028BF8
:1096D00010BD000000000000D1E90023C0E9002314
:1096E000D1E90021C0E90221FFF7CCBF1849087F6A
:1096F000012801D0032811D100BF1649096841F49F
:109700000061144A11601146096821F4006111607A
:1097100000BF1146096841F400711160022801D0B0
:10972000032811D100BF0B49096841F48051094A4F
:1097300011601146096821F48051116000BF114683
:10974000096841F4806111600021014A1177704776
:10975000FC0000200020024000F0010129B10B496B
:10976000496941F00401094A516100F0020129B13F
:109770000649496941F40041044A51610349496974
:1097800041F48031014A51617047000000200240DD
:1097900001F0010232B10F4A526922F400620D4B0E
:1097A0005A6105E00B4A526942F40062094B5A6162
:1097B000084A526960F3CA02064B5A611A46526956
:1097C00042F002025A611A46526942F480325A61EA
:1097D000704700000020024010B50449496941F07B
:1097E0000101024C61610260436010BD0020024033
:1097F00070B5402204460B46084D6D6945F480253E
:10980000064E756172B600BF1D682560241D1B1DC4
:10981000551EEAB2002AF7D162B670BD00200240A0
:1098200070B5054602F032F9064608E0681C30B112
:1098300002F02CF9801BA84201D3032070BD1C4804
:109840000069C0F300400028F0D1194800694CF2CB
:10985000FA3100EA01041648806900F00040044330
:10986000CCB11448406820431249486000BF04F05E
:10987000404030B10E48806904F0404108430C4933
:10988000886124F0404018B124F040400849086144
:1098900000BF0120D2E70648006900F0010020B1B6
:1098A00000BF01200249086100BF0020C6E7000098
:1098B00000200240FC00002010B54FF40051044885
:1098C00002F0D6F808B1012010BD0020FCE700002E
:1098D0000008004830B52DED068B87B005463648A8
:1098E000019025B1012D05D0022D09D105E03248A6
:1098F000019005E03148019002E03148019000BF3D
:1099000000BF06200290002003907F2004900420D6
:1099100005900020069001A92A4800F0F1F8294896
:1099200000F03AFE0A21274800F09EFD254800F08D
:1099300045FC0446234800F0BDFEDDB92248D0EDC9
:10994000000A00EE104AB8EE400A20EE800A10EE3F
:10995000101A0846FEF7D1FE41EC1A0B9FED1B0BC7
:1099600053EC102BFEF7A8FD41EC190BFEF708FF96
:1099700008EE100A012D16D100EE104AB8EE400A8A
:10998000DFED140A20EE200ADFED130A80EE801AC4
:109990000D4880ED001A90ED000ADFED100A20EE70
:1099A000200AB0EE408ABCEEC80A10EE100A80B25F
:1099B00007B0BDEC068B30BD1000C0100100008068
:1099C000000084CBD8250120440000203D75894348
:1099D00066C9FA3F3333533A9A99993F00404E454E
:1099E0002DE9F04399B004460E464FF00008306868
:1099F00000B100BF00BF94F85000012803D102203D
:109A000019B0BDE8F083012084F8500000BF384948
:109A10002068884202D13748009001E00020009081
:109A2000009850B9606D40F02000606500BF0020D4
:109A300084F8500000BF0120E2E7009805F00CFE1A
:109A40000746206805F008FEF0BBEFBB2A4D3068E2
:109A500020B394F83000716841EA4030A96821F4DD
:109A600060410843A860224805F0E7FD814621488F
:109A700005F0E3FD49EA0009204805F0DEFD49EA6A
:109A80000009B9F1000F2CD1B16830680843A9680A
:109A900040F61F7291430843A86022E0A86820F4B2
:109AA0006040A860124805F0C8FD8146114805F0E5
:109AB000C4FD49EA0009114805F0BFFD49EA000963
:109AC000B9F1000F0DD100E005E0A86840F61F7164
:109AD0008843A86005E0606D40F0200060654FF0AD
:109AE000010800BF002084F8500000BF404687E70F
:109AF0000000045000010450000304500002045010
:109B00002DE9F84F05460C464FF0000A0020009062
:109B1000FE49E068884200D000E000BF00BF95F831
:109B20005000012802D1022000F05CBA012085F823
:109B3000500000BF286805F08AFD002872D16068D7
:109B400005281AD86068022806D0032807D0042800
:109B500008D005280DD108E00C2060600CE0122030
:109B6000606009E01820606006E04FF4807060607B
:109B700002E00620606000BF00BF2968D4E9002031
:109B800001F1300CC0F3012B0CEB8B0300F01F0E26
:109B90004FF01F0B0BFA0EFBD3F800C02CEA0B0C96
:109BA00000F01F0BC2F3846E0EFA0BFE4CEA0E0C93
:109BB000C3F800C000BF286805F049FD8146286849
:109BC00005F02CFD8046B9F1000F2AD1B8F1000F45
:109BD000FBD1A2682168286805F054FD60692968F6
:109BE000C968C1F3C101490000FA01F720690428DE
:109BF00019D028682268216900F1600C0CEB810300
:109C0000DFF80CB3D3F800C00CEA0B0C02F0F84BF1
:109C10004BF0004B4BEA070B4CEA0B0CC3F800C0AF
:109C200000BFA8E0C2E10021286805F0EEFCC0F307
:109C3000120030B90021286805F0E7FCC0F3846009
:109C400007E00021286805F0E0FC90FAA0F0B0FAE7
:109C500080F02168C1F3120119B92168C1F3846150
:109C600004E0216891FAA1F1B1FA81F1884204D1AE
:109C700000221146286805F01FFD0121286805F023
:109C8000C4FCC0F3120030B90121286805F0BDFC06
:109C9000C0F3846007E00121286805F0B6FC90FA63
:109CA000A0F0B0FA80F02168C1F3120119B921685F
:109CB000C1F3846104E0216891FAA1F1B1FA81F164
:109CC000884204D100220121286805F0F5FC022118
:109CD000286805F09AFCC0F3120030B90221286808
:109CE00005F093FCC0F3846007E00221286805F0CA
:109CF0008CFC90FAA0F0B0FA80F02168C1F3120158
:109D000019B92168C1F3846104E0216891FAA1F1D5
:109D1000B1FA81F1884204D100220221286805F0BD
:109D2000CBFC0321286805F070FCC0F3120030B9A9
:109D30000321286805F069FCC0F3846007E0032173
:109D4000286805F062FC90FAA0F0B0FA80F0216873
:109D5000C1F3120119B92168C1F3846104E02168DB
:109D600091FAA1F1B1FA81F1884204D100220321D4
:109D7000286805F0A1FC286805F05AFC002870D17D
:109D80002868E2682168D0F8B0C0C1F312032CEA59
:109D9000030C02F0180B5F4B23FA0BF30B404CEA59
:109DA000030CC0F8B0C000BF5849E068884258D1E1
:109DB0002368C3F312031BB92368C3F3846304E06D
:109DC000236893FAA3F3B3FA83F35B1C03F01F0336
:109DD000092B3ED82368C3F312031BB92368C3F3CE
:109DE000846304E0236893FAA3F3B3FA83F35B1C60
:109DF00003F01F034FF0010C0CFA03FC2368C3F3BC
:109E000012031BB92368C3F3846304E0236893FA45
:109E1000A3F3B3FA83F35B1C03F01F034CEA836CD8
:109E20002368C3F312031BB92368C3F3846304E0FC
:109E3000236893FAA3F3B3FA83F35B1C03F01F03C5
:109E400003EB43034FF0000B4BEA03534CEA0303CD
:109E50003FE02368C3F3120323B92368C3F3846389
:109E600005E03BE0236893FAA3F3B3FA83F35B1CAA
:109E700003F01F034FF0010C0CFA03FC2368C3F33B
:109E800012031BB92368C3F3846304E0236893FAC5
:109E9000A3F3B3FA83F35B1C03F01F034CEA836C58
:109EA0002368C3F312031BB92368C3F3846304E07C
:109EB000236893FAA3F3B3FA83F35B1C03F01F0345
:109EC0000A3B03EB43034FF0007B4BEA03534CEA9E
:109ED00003031946A268286805F0D4FB0E492068E0
:109EE0000840A0B300BF0D48806800F0E07600BFD6
:109EF0000B492068884233D106F4000040BB094971
:109F00002868884214D0084928680FE000007F4084
:109F100000F0FF03FFFF070000000880000304506B
:109F2000000052C70000045000020450884243D190
:109F300046F40001244805F0B9FB24480068244990
:109F4000B0FBF1F000EB40008000009004E01BE06B
:109F500006E00098401E009000980028F9D12BE000
:109F60001C492068884210D106F0807068B91A49EF
:109F70002868884203D01949286888421CD146F0D5
:109F80008071114805F092FB16E01549206888425F
:109F900012D106F4800078B90F49286888420BD1A5
:109FA00046F48001084805F081FB05E0686D40F04B
:109FB000200068654FF0010A00BF002085F85000BE
:109FC00000BF5046B0E50000000304501C01002013
:109FD000400D0300000084CB000004500002045038
:109FE0000100008018BCBDE8E08F000070B5044699
:109FF0000CB9012070BD606D40F002006065032166
:10A000002046FEF7FFFD05462068C06840F40010BA
:10A010002168C86035B92046FEF782FE05460DB9B5
:10A0200001206065206840686FF30A00216848607D
:10A0300040F2FF70216808602068806820F0A0402E
:10A04000216888602068806840F00050216888603E
:10A050002068C068514908402168C8602068C0680D
:10A0600040F000402168C860206800696FF30A0072
:10A07000216808612068406900F04040216848611B
:10A080002068806900F07840216888612068006A53
:10A0900000F0F020216808622068406A00F0FF208C
:10A0A000216848622068806A00F0FF202168886289
:10A0B0002068006B3A490840216808632068406BBB
:10A0C000374910390840216848632068806B34495B
:10A0D00010390840216888632068C06B40F2DF7146
:10A0E00088432168C8632068006E2E4908402168B3
:10A0F00008662068406E2B49084021684866206841
:10A10000806E28490840216888662068C06E25490D
:10A1100008402168C8662068D0F8A0006FF31200DC
:10A120002168C1F8A0002068D0F8A4006FF31200E5
:10A130002168C1F8A4002068D0F8B0006FF31200C5
:10A140002168C1F8B0002068D0F8B40020F07F107A
:10A150002168C1F8B400144805F06AFA06461348AD
:10A1600005F066FA0643124805F062FA064336B96E
:10A1700010480068104908400B49C1F80803204600
:10A1800000F032F90020A065E065002121666065DD
:10A1900000BF84F8500000BF28462BE704800080F1
:10A1A000300882E000F0FF0300000450000104507A
:10A1B0000002045008030450E01000FE0146086845
:10A1C000006C70472DE9F84F04464FF0000900205D
:10A1D000009014B9012000F003B9206920B12020BB
:10A1E000005D012800D100BF606D30B9204600F04D
:10A1F00013F90020A06584F8500020688168C1F33D
:10A20000407131B1206881686C4A1140816000BFA3
:10A2100000BF206805F016FAA0B920688168684A76
:10A22000114041F08051816000BF66480068664976
:10A23000B0FBF1F0009002E00098401E0090009802
:10A240000028F9D1206805F0FDF948B9606D40F0AB
:10A2500010006065A06D40F00100A0654FF001099D
:10A26000206805F0F4F90646606D00F01000002843
:10A270007BD1002EFCD1606D20F4807040F0020094
:10A280006065206805F0D4F9D0B9504805F0D0F9E0
:10A2900082464F4805F0CCF94AEA000A4D4805F0DD
:10A2A000C7F94AEA000ABAF1000F09D160684A49C1
:10A2B000896821F47C110143474A916000BF00BFC7
:10A2C000607E616B41EA4030E1680843A168084361
:10A2D0002021095D40EA01452020005D012803D1CD
:10A2E000A08C401E45EA4045A06A28B1208D00F4AC
:10A2F0007070E16A084305432068C0683749084028
:10A3000028432168C860206805F0A1F980462068CC
:10A3100005F084F90746B8F1000F2DD127BB207E48
:10A32000002141EA803194F8300041EA400520687C
:10A33000C06844F20201884328432168C86094F849
:10A340003800012812D1E06B40F00101206C084375
:10A35000616C0843A16C08432168096940F2FC72F2
:10A36000914308432168086106E01FE02068006906
:10A3700020F00100216808612069012809D12068C6
:10A38000006B20F00F00E169491E08432168086353
:10A3900005E02068006B20F00F0021680863606D05
:10A3A00020F0020040F00100606505E0606D40F0C3
:10A3B000100060654FF0010948460CE7C0FFFF5FE1
:10A3C000C0FFFF7F1C010020400D0300000004506F
:10A3D00000010450000204500003045007C0F0FFC5
:10A3E00018BCBDE8E08F000010B50446074920689E
:10A3F000884209D10648C06C20F400500449C86462
:10A400000821044801F090F910BD0000000004503C
:10A41000001002400008004810B586B004460F49FD
:10A420002068884217D100BF0D48C06C40F400502E
:10A430000B49C8640846C06C00F40050009000BF8F
:10A4400000BF082001900B2002900020039001A97A
:10A45000044801F00BFA06B010BD000000000450E3
:10A4600000100240000800482DE9F04704460F465E
:10A47000464805F0C5F805466069082801D1082658
:10A480001FE01DB1052D01D0092D0DD12068C06838
:10A4900000F0010030B1606D40F0200060650120E7
:10A4A000BDE8F08704260CE000BF3848806800F45F
:10A4B000604028B1606D40F0200060650120EFE74A
:10A4C000042601F0E3FA804613E0781C88B101F01D
:10A4D000DDFAA0EB0800B84200D857B9606D40F033
:10A4E0000400606500BF002084F8500000BF032016
:10A4F000D6E72068006830400028E6D0606D40F460
:10A5000000706065206805F0ACF898B1607E88B98D
:10A510002068006800F0080008280BD1606D20F466
:10A5200080706065606D00F4805018B9606D40F017
:10A530000100606516492068884201D1154800E095
:10A5400020682168884204D01DB1052D01D0092D55
:10A5500003D12068D0F80C9009E00D4920688842AA
:10A5600001D10C4800E020688246DAF80C90082EF1
:10A5700003D108202168086005E009F4804010B983
:10A580000C202168086000208AE7000000030450C6
:10A5900000010450000004502DE9F04104464248F7
:10A5A00005F02EF80646206805F051F8002877D10E
:10A5B00000BF94F85000012802D10220BDE8F081CC
:10A5C000012084F8500000BF2046FEF7EDFB054651
:10A5D000002D60D1606D40F60161884340F48070C9
:10A5E000606532492068884201D1314800E0206826
:10A5F0002168884200D01EB9606D20F4801060652B
:10A60000606D00F48050B0F5805F04D1A06D20F043
:10A610000600A06501E00020A0651C2021680860FC
:10A6200000BF002084F8500000BF20492068884205
:10A6300001D11F4800E020682168884204D01EB183
:10A64000052E01D0092E0ED12068C06800F00070E0
:10A6500028B1606D20F4005040F48050606520689F
:10A6600005F008F81DE0606D40F4801060650F494A
:10A670002068884201D10E4800E020680746F8684B
:10A6800000F0007068B1606D20F4005040F480501C
:10A69000606506E004E000BF002084F8500000E0A0
:10A6A000022528468AE700000003045000010450F8
:10A6B0000000045070B5044600BF94F85000012813
:10A6C00001D1022070BD012084F8500000BF032199
:10A6D0002046FEF797FA054655B92046FEF720FBBF
:10A6E00005462DB9606D20F4885040F0010060658A
:10A6F00000BF002084F8500000BF2846E2E7704702
:10A7000010B504460CB9012010BD2068FEF7D6FE36
:10A71000414951F8200008B10120F5E7204600F03A
:10A7200081F83E480068401C3C49086008460068C3
:10A73000012821D13A48006820F08040384908605B
:10A7400008460068A1680843354908600846006863
:10A7500020F47F0008602079012807D108460168AD
:10A76000A089401E41EA00402D4908602C4800683D
:10A7700040F000402A4908602068006820F47140D9
:10A7800021680860D4E904100843A16908432168DE
:10A7900009680843216808602068006820F00F00FD
:10A7A00021680860D4E90710084321680968084354
:10A7B000216808602068806820F45F002168886054
:10A7C000208D401E616A41EA004021688968084383
:10A7D000216888602068406800F0070021684860B0
:10A7E000E06A0102206B41EAC00021684968084321
:10A7F000216848602068006840F080002168086097
:10A80000012084F834002068FEF758FE024941F820
:10A810002040002078E70000B83D0120F40000202F
:10A820000060014010B586B004462A480068002840
:10A830004DD129480068401C274908600846006837
:10A8400001280DD100BF2548006E40F080702349DB
:10A8500008660846006E00F08070009000BF00BFE0
:10A860008520019002200290002003900490062091
:10A87000059001A91A4800F0F9FF4220019002203A
:10A8800002900020039004900620059001A915482D
:10A8900000F0ECFF002211463D2001F0CAF93D20F6
:10A8A00001F0BAF9002211463E2001F0C2F93E2023
:10A8B00001F0B2F9002211463F2001F0BAF93F2021
:10A8C00001F0AAF903480068401C0249086006B07C
:10A8D00010BD00009C0000209800002000100240E5
:10A8E00000080048000400487047704770B50346F0
:10A8F000002093F84C4004B393F84C40FF2C1CD03C
:10A900001C6824680E4D2C401D682C60012A0AD159
:10A910001C6824680D0C2D04960446EA05252C437A
:10A920001D682C6007E01C6824680D0C2D0444EAA7
:10A9300005241D682C601A6300E0012070BD000032
:10A94000FFFFFBF87047000010B504460CB901206A
:10A9500010BD49492068884207D16068012802D0AB
:10A96000E068012801D10120F2E7002020630120E6
:10A970006064A06400202065204600F083F8206811
:10A98000006820F4002021680860207A012806D1A0
:10A990002068006840F000502168086005E02068E9
:10A9A000006820F0005021680860607A012806D114
:10A9B0002068006840F400102168086005E0206805
:10A9C000006820F40010216808602068006846F2E2
:10A9D0000871884321680860E068022805D1206872
:10A9E00001686069014320680160207C012806D16C
:10A9F0002068006840F010002168086005E02068C9
:10AA0000006820F0100021680860607C012806D1F1
:10AA10002068006840F020002168086005E0206898
:10AA2000006820F020002168086020684069134910
:10AA3000084021684861208C401EE16941EA0041DC
:10AA4000606A401E084321684969084321684861DB
:10AA500060686063E068A063A069E063207C84F8BC
:10AA600040002068006840F0010021680860012073
:10AA700084F84C0000206BE70061014000FF001CDF
:10AA80007047000010B586B004465B480068002897
:10AA900035D15A480068401C58490860084600688B
:10AAA00001280DD100BF5648006E40F08070544917
:10AAB00008660846006E00F08070009000BF00BF7E
:10AAC000852001900220029000200390049006202F
:10AAD000059001A94B4800F0C9FE422001900220D8
:10AAE00002900020039004900620059001A946489A
:10AAF00000F0BCFE40480068401C3F4908604349E4
:10AB00002068884222D142484249086000204860BB
:10AB1000002140488160C16080210161890041615C
:10AB2000890081612021C1610021016200F0F0FBF8
:10AB300018B1F22138A009F050FF00BF3548E0629B
:10AB4000846200BF00BFA062846200BF2F498031D1
:10AB50002068884224D12E481430334908600020F0
:10AB60004860002130488160C16080210161890016
:10AB70004161890081612021C1610021016200F0F1
:10AB8000C7FB20B14FF4847123A009F026FF00BF5A
:10AB90002548E062846200BF00BFA062846200BFFB
:10ABA00022492068884224D1194828302049086069
:10ABB0000020486000211E488160C1608021016141
:10ABC00089004161890081612021C1610021016208
:10ABD00000F09EFB20B14FF48F710FA009F0FDFE35
:10ABE00000BF1348E062846200BF00BFA0628462BD
:10ABF00000BF06B010BD00009C000020980000209F
:10AC000000100240000800480004004800610140B4
:10AC100044000240E02701202E2E2F5372632F6440
:10AC20006673646D2E6300002828012000620140D5
:10AC30007028012010B5044629480078032833D134
:10AC400028492068884205D12748007840F0100044
:10AC500025490870234980312068884205D122485F
:10AC6000007840F020002049087020492068884280
:10AC700005D11D48007840F040001B4908701A4873
:10AC8000007870280FD14FF48073194AA2F5006143
:10AC9000A1F5006016F0D6FD002116480EF00CFF5D
:10ACA00000201149087010BD0E492068884203D168
:10ACB000002110480EF000FF0A49803120688842C8
:10ACC00003D101210C480EF0F7FE084920688842A4
:10ACD00003D1022106480EF0EFFE00BFE3E70000BB
:10ACE00005000020006101400400002000620140D6
:10ACF000A8640020A8540020A85C002010B50446D9
:10AD000029480078032833D128492068884205D192
:10AD10002748007840F00100254908702349803118
:10AD20002068884205D12248007840F0020020497E
:10AD3000087020492068884205D11D48007840F0FD
:10AD400004001B4908701A48007807280FD14FF4F7
:10AD50008073194AA2F50061A1F5006016F072FD3A
:10AD6000002116480EF0A8FE00201149087010BD01
:10AD70000E492068884203D1002110480EF09CFE45
:10AD80000A4980312068884203D101210C480EF025
:10AD900093FE08492068884203D1022106480EF03C
:10ADA0008BFE00BFE3E700000500002000610140CA
:10ADB0000400002000620140A8600020A85000208C
:10ADC000A85800202DE9F04104460E4615460027FC
:10ADD00006B10DB9012747E02068006800F40010B3
:10ADE000B0F5001F01D001273EE0606B40B9206B39
:10ADF00030B9A06AC06918B9012D01D0012733E02C
:10AE0000606B38B9206B28B9A06AC069202801D1CD
:10AE1000012729E094F84C00012803D094F84C0055
:10AE2000032820D11248A16AC8621248A16A486367
:10AE3000A06AC069202801D10F4800E00020A16A63
:10AE40000863226802F11C012B463246A06A00F01A
:10AE5000E5FA20B1FF2084F84C00012704E02046E9
:10AE6000FEF760FB00E001273846BDE8F0810000F6
:10AE70009F9400088D940008AD94000870B50446B6
:10AE8000002594F84C00022805D094F84C000428C2
:10AE900001D001250BE0A06A00F006F920B1FF20E7
:10AEA00084F84C00012502E02046FEF774FB28469A
:10AEB00070BD00002DE9F0470446206885682068D1
:10AEC000466805F0080058B106F0080040B10820B7
:10AED0002168C860012020652046FFF733FDDDE0D2
:10AEE00005F0040058B106F0040040B104202168C8
:10AEF000C860022020652046FFF724FDCEE005F063
:10AF00000200D8B106F00200C0B12046FFF792FE61
:10AF1000206B0028E3D1606B0028E0D120684068F6
:10AF200020F002002168486094F84C00022801D10A
:10AF3000012000E0032084F84C00AFE005F00100A0
:10AF400028B306F0010010B32046FFF799FDA06C6E
:10AF5000401EA064A06C0028C1D1A06B70B920680D
:10AF6000406820F001002168486094F84C000328F4
:10AF700001D1012000E0022084F84C0094F8400048
:10AF8000012801D1606C00E00120A06486E005F09A
:10AF9000100070B306F0100058B300272068D0F8F6
:10AFA000288008F0FF0008B1012000E00020814661
:10AFB000B9F1000F01D14FEA182802E07F1C4FEAD7
:10AFC000580808F0010008B9072FF7D3B9F1000FAE
:10AFD00005D107F10800012101FA00F001E001208C
:10AFE000B8402168C8624A4639462046FFF77DFCD2
:10AFF00054E0FFE72A49206888422BD105F47F00FE
:10B0000040B306F0400028B3002720688068C0F3F2
:10B0100007481CE008F00100B0B1224850F82700B2
:10B0200090B1204850F827000068006800F0400008
:10B0300050B107F11000012181402068C160194919
:10B0400051F82700FFF75BFB7F1C4FEA5808082FD9
:10B05000E0D323E01249206888421FD105F07F40E9
:10B06000E0B106F02000C8B10027206880684FEAF0
:10B07000106802E07F1C4FEA580808F0010008B988
:10B08000072FF7D307F11800012181402068C16024
:10B09000044951F82700FFF727FC00BFBDE8F087FF
:10B0A00000610140B83D01200146002209B901209C
:10B0B00070470868006820F00E000B681860086888
:10B0C000006820F001000B68186091F8440000F05F
:10B0D0001C03012098400B6C5860012081F825006A
:10B0E00000BF002081F8240000BF1046E0E770B5E3
:10B0F0000446002594F82500022803D00420E063CC
:10B10000012520E02068006820F00E00216808601A
:10B110002068006820F001002168086094F844006D
:10B1200000F01C0101208840216C4860012084F857
:10B13000250000BF002084F8240000BFA06B10B1E0
:10B140002046A16B8847284670BD0000014609B91A
:10B15000012070470868006820F001000A6810604C
:10B16000294A086890420BD2284A0868801A14229B
:10B17000B0FBF2F0800048642448083808640AE014
:10B18000214A0868801A1422B0FBF2F0800048645B
:10B190001D480838086400200A68106091F84400CF
:10B1A00000F01C02012090400A6C5060174A083AD7
:10B1B000086C90420DD1D0F8A80091F8442002F01C
:10B1C0001C030F229A409043104A083AC2F8A80084
:10B1D0000CE00D48A030006891F8442002F01C03F8
:10B1E0000F229A409043084AA03210600020C862A3
:10B1F000086348638863C86381F8250000BF81F84D
:10B20000240000BF00BFA4E7080402400800024079
:10B2100070B50446206C05682068066894F8440000
:10B2200000F01C01042088402840E0B106F0040032
:10B23000C8B12068006800F0200028B920680068C4
:10B2400020F004002168086094F8440000F01C011C
:10B2500004208840216C4860206B002856D020468E
:10B26000216B884752E094F8440000F01C01022052
:10B270008840284018B306F0020000B32068006838
:10B2800000F0200040B92068006820F00A00216822
:10B290000860012084F8250094F8440000F01C01A7
:10B2A00002208840216C486000BF002084F8240000
:10B2B00000BFE06A50B32046E16A884726E094F870
:10B2C000440000F01C01082088402840F0B106F03E
:10B2D0000800D8B12068006820F00E0021680860DE
:10B2E00094F8440000F01C0101208840216C486063
:10B2F0000120E06384F8250000BF002084F82400CA
:10B3000000BF606B10B12046616B884770BD0000C4
:10B3100010B5014609B9012010BD3E4B086898429E
:10B320000BD23D4B0868C01A1423B0FBF3F0800029
:10B3300048643948083808640AE0364B0868C01A7F
:10B340001423B0FBF3F080004864324808380864E6
:10B35000022081F825000868026847F6F0708243F1
:10B36000D1E9020318430B6918434B6918438B69F1
:10B370001843CB6918430B6A1843024308680260FC
:10B380008868B0F5804F3AD0234B083B086C984250
:10B390001BD1D0F8A80091F8443003F01C040F230F
:10B3A000A34098431C4BA033186091F8443003F03D
:10B3B0001C0348689840184B083BD3F8A830184342
:10B3C000154B083BC3F8A80019E01248A0300068EC
:10B3D00091F8443003F01C040F23A34098430D4B15
:10B3E000A033186091F8443003F01C03486898407B
:10B3F000084BA0331B681843064BA033186000208D
:10B40000C863012081F82500002081F8240000BFD6
:10B4100082E7000008040240080002402DE9F041E4
:10B4200004460D4616461F464FF0000800BF94F82C
:10B430002400012802D10220BDE8F081012084F817
:10B44000240000BF94F8250001282CD1022084F8A4
:10B4500025000020E0632068006820F001002168DA
:10B4600008603B46324629462046FEF7E7F8206B47
:10B4700030B12068006840F00E00216808600BE0E1
:10B480002068006820F004002168086020680068D7
:10B4900040F00A00216808602068006840F0010060
:10B4A0002168086006E000BF002084F8240000BF87
:10B4B0004FF002084046BFE710B54FF0FF300C498F
:10B4C000886300208863401E086400200864401ED2
:10B4D000886200208862401EC8620020C862401E48
:10B4E00008630020086300F03FFB002010BD00004F
:10B4F0000010024070B5044600F0C8FA0646254622
:10B50000681C00B16D1C00BF00F0C0FA801BA8428F
:10B51000FAD370BD2DE9F04104460F4600BF3F4805
:10B520000078012802D10220BDE8F08101203B49CA
:10B53000087000BF4CF25030FEF772F90646002E3C
:10B5400064D1364948603648006800F40070B8B1EC
:10B550003348006820F400703149086008460068EC
:10B5600000F4806040B10846006820F48060086004
:10B5700003202A49087715E001202849087711E0BF
:10B580002748006800F4806048B12548006820F42E
:10B5900080602349086002202049087702E00020EB
:10B5A0001E490877206801280FD16068FEF7D4F89B
:10B5B0004CF25030FEF734F906461948406948F21B
:10B5C00004018843164948611EE04FF0FF3038609F
:10B5D000A56813E028466168FEF7DAF84CF25030AF
:10B5E000FEF71EF906460E48406940F2FA7188439C
:10B5F0000B4948610EB13D6005E06D1CD4E90201C4
:10B600000844A842E6D800BFFEF770F800BF00204B
:10B610000249087000BF304686E70000FC000020A9
:10B62000002002400348406940F000400149486161
:10B6300000207047002002402DE9F047044688466C
:10B6400015461E464FF0000900BF29480078012822
:10B6500002D10220BDE8F08701202549087000BF13
:10B660004CF25030FEF7DCF80746002F38D1204965
:10B6700048602048006800F4806048B11D480068B8
:10B6800020F480601B49086002201949087702E015
:10B690000020174908773CB92A4633464046FEF752
:10B6A0009BF84FF001090BE0012C01D0022C07D1CF
:10B6B00029464046FEF79CF8022C01D14FF4802920
:10B6C0004CF25030FEF7ACF80746B9F1000F05D048
:10B6D0000848406920EA090006494861FEF706F873
:10B6E00000BF00200249087000BF3846B2E70000E2
:10B6F000FC0000200020024000200849496901F0B8
:10B70000004151B10649054A9160064991601146D0
:10B71000496901F0004101B1012070470020024059
:10B7200023016745AB89EFCDF0B50B46002187E0DB
:10B7300001258D4005EA0302002A7DD005684F00EF
:10B740000326BE4035430560CE0800F1200555F8BC
:10B7500026504E07F70E0F26BE40B543CF0800F126
:10B76000200646F8275085684F000326BE40B543A3
:10B770008560466801258D40AE434660C5684F0030
:10B780000326BE40B543C560C66A01258D40AE4361
:10B79000C6622E4D8E0855F826408D072E0F0F25B8
:10B7A000B5402C40B0F1904F01D100251EE0284D4E
:10B7B000A84201D1012519E0264DA84201D1022558
:10B7C00014E0254DA84201D103250FE0234DA842E6
:10B7D00001D104250AE0224DA84201D1052505E04A
:10B7E000204DA84201D1062500E007258E07360F1F
:10B7F000B540A54223D18D072E0F0F2505FA06F47B
:10B80000124D8E0855F82650A543104E8F0846F865
:10B810002750154D2D689543134E3560351D2D6805
:10B820009543361D3560351D2D689543361D3560B1
:10B83000351D2D68954300E001E0361D3560491C3B
:10B8400023FA01F5002D7FF473AFF0BD080001402D
:10B850000004004800080048000C004800100048A0
:10B8600000140048001800480004014078B5034661
:10B870000022E5E0012696400D6805EA0604002C4A
:10B880007DD04D68022D02D04D68122D13D1D608FF
:10B8900003F1200555F826005507EE0E0F25B5409B
:10B8A000A8435607F60E0D69B5402843D60803F1A4
:10B8B000200545F82600186856000325B540A84322
:10B8C0000D7905F003055600B540284318604D6812
:10B8D000012D08D04D68022D05D04D68112D02D0E4
:10B8E0004D68122D13D1986856000325B540A84322
:10B8F0005600CD68B54028439860586801259540AA
:10B90000A8430D79C5F300159540284358600D797B
:10B9100005F00305032D09D1D86A01259540A843F8
:10B920000D79C5F3C00595402843D862D868560004
:10B930000325B540A84356008D68B5402843D8601C
:10B940004D6805F08055B5F1805F78D100BF3F4D5F
:10B950002D6E45F001053D4E356635462D6E05F0E0
:10B960000105009500BF00BF4FEAB635960855F8AF
:10B97000260095072E0F0F25B540A84300E05EE096
:10B98000B3F1904F01D100251EE0314DAB4201D102
:10B99000012519E02F4DAB4201D1022514E02E4DB7
:10B9A000AB4201D103250FE02C4DAB4201D1042560
:10B9B0000AE02B4DAB4201D1052505E0294DAB42F4
:10B9C00001D1062500E007259607360FB54028432C
:10B9D000254D960845F82600244D2868A0434D685B
:10B9E00005F48035B5F5803F00D120431F4D286018
:10B9F0002D1D2868A0434D6805F40035B5F5003FBE
:10BA000000D12043194D2D1D28602D1D2868A0430D
:10BA10004D6805F48015B5F5801F00D12043134D06
:10BA2000083528602D1D2868A0434D6805F40015D1
:10BA3000B5F5001F00D120430C4D0C352860521C79
:10BA40000D68D540002D7FF415AF78BD0010024081
:10BA50000004004800080048000C0048001000489E
:10BA6000001400480018004808000140000401408C
:10BA7000024613690B400BB1012000E00020704723
:10BA80000AB1816100E081627047000001480068EE
:10BA900070470000F800002070B504460CB9012082
:10BAA00070BD4CF6CC402168086045F255502168C5
:10BAB0000860D4E9001048602168A0688860FFF73A
:10BAC000E5FF054606E0FFF7E1FF401B302801D9FE
:10BAD0000320E5E72068C0680028F4D120680169E8
:10BAE000E068814203D02168E068086103E04AF61B
:10BAF000AA20216808600020D2E701464AF6AA2061
:10BB00000A6810600020704702480068401C014924
:10BB100008607047F800002010B50024032000F0F2
:10BB2000C9F8002000F008F808B1012401E000F095
:10BB30001DF8204610BD000070B5044600250948D8
:10BB400000684FF47A71B0FBF1F6304602F000FF66
:10BB500008B1012504E000222146501E00F069F8DA
:10BB6000284670BD1C0100207047000008B500BFCA
:10BB70002148006E40F001001F4908660846006E2B
:10BB800000F00100009000BF00BF00BF0846806DBC
:10BB900040F0805088650846806D00F0805000902D
:10BBA00000BF00BF032000F085F8002211466FF0AF
:10BBB0000B0000F03EF8002211466FF00A0000F082
:10BBC00038F8002211466FF0090000F032F8002228
:10BBD0001146501F00F02DF800221146101F00F0F2
:10BBE00028F800221146901E00F023F8002211468A
:10BBF000501E00F01EF808BD0010024000BF00F00B
:10BC00001F0201219140034A430942F8231000BF5B
:10BC10007047000080E100E000BF00F01F0201213A
:10BC200091404209920002F1E022C2F8001100BFE7
:10BC300070472DE9F05F80460D461646002704F058
:10BC400001FF074639462A46334601F00700C0F196
:10BC5000070ABAF1040F02D94FF0040A01E0C0F15B
:10BC6000070AD14600F1040ABAF1070F02D24FF0D9
:10BC7000000A01E0A0F1030AD4464FF0010A0AFAD3
:10BC800009FAAAF1010A0AEA020A0AFA0CFA4FF0C2
:10BC9000010B0BFA0CFBABF1010B0BEA030B4AEAAD
:10BCA0000B042146404604F0D5FE00F000B830BC3D
:10BCB000BDE8C09F00BF00F00702064B19684FF6B1
:10BCC000FF031940044B0B4343EA0221014B196067
:10BCD00000BF70470CED00E00000FA0500BF00BF98
:10BCE00000BF00BF00BFBFF34F8F00BF00BF00BF4A
:10BCF0000948006800F4E06008490843001D06494F
:10BD0000086000BF00BF00BFBFF34F8F00BF00BF80
:10BD100000BF00BF00BFFDE70CED00E00000FA052A
:10BD200001460A680120C1F80004906B40F400301D
:10BD3000906300207047000001460A680120C1F8A6
:10BD4000FC03002081F8F403906940F000609061EA
:10BD5000506D024B184350650020704703000010DF
:10BD600070B504460D4615B1012D2CD116E0206AA0
:10BD700038B105F083FD1548006820F0060013492E
:10BD800008602068D0F8000E20F001002168C1F89A
:10BD9000000ED4F8040407F029FB14E02068D0F862
:10BDA000000E40F001002168C1F8000ED4F8040430
:10BDB00007F0EFFB206A28B10448006840F0060055
:10BDC0000249086000BF00BF70BD000010ED00E038
:10BDD00002461068416200207047F0B503461546E0
:10BDE0001868446A21B944EA05401E68B06219E047
:10BDF0001868806A04EB1044002208E0186800F517
:10BE0000827050F8220004EB1044501CC2B2481E4D
:10BE10009042F3D844EA0547186800F582704E1E38
:10BE200040F826700020F0BD10B50446D4F8040494
:10BE300007F0CEF910BD70B504460D46C5EBC5033D
:10BE400004F13C0101EB8301CA682946D4F80404DB
:10BE500007F0D0F870BD70B504460D46C5EBC503BC
:10BE600004F5FE7101EB8301CA682946D4F8040485
:10BE700007F040F970BD10B504460CB9012010BDA3
:10BE8000032084F8BD03204600F061FE204600F048
:10BE900063FD002084F8BD0300BFF0E710B5044641
:10BEA000D4F8040407F097F910BD70B504460E46A7
:10BEB00006F0800080280AD106F00F00C0EBC00118
:10BEC00004F13C0000EB81050120687009E006F0F8
:10BED0000F00C0EBC00104F5FE7000EB81050020EF
:10BEE000687006F00F00287000BF94F8BC030128AA
:10BEF00001D1022070BD012084F8BC0300BF294697
:10BF0000206807F0F9FE00BF002084F8BC0300BFE2
:10BF100000BFEFE770B504460E4606F00F006168FB
:10BF2000884201D9012070BD06F0800080280AD126
:10BF300006F00F00C0EBC00104F13C0000EB8105EE
:10BF40000120687009E006F00F00C0EBC00104F5A5
:10BF5000FE7000EB8105002068700020A87006F0DC
:10BF60000F00287000BF94F8BC03012801D1022003
:10BF7000D9E7012084F8BC0300BF2946206808F0F7
:10BF8000F9F800BF002084F8BC0300BF00BFCAE777
:10BF9000024601F00F00C0EBC00302F5FE7000EB9B
:10BFA0008300008B80B270472DE9F04705460E46AE
:10BFB00090461F464FF0000906F0800080280AD105
:10BFC00006F00F00C0EBC00105F13C0000EB81045E
:10BFD0000120607009E006F00F00C0EBC00105F51C
:10BFE000FE7000EB81040020607006F00F002070EE
:10BFF000C4F80880E770607808B12078E080022FEC
:10C0000001D10020207100BF95F8BC03012802D1A6
:10C010000220BDE8F087012085F8BC0300BF21465F
:10C02000286807F089FD00BF002085F8BC0300BF29
:10C030004846EEE72DE9F04105460E46174698467C
:10C0400006F00F00C0EBC00105F5FE7000EB8104A7
:10C05000E760C4F814800020A061607006F00F0053
:10C06000207006F00F0020B92146286807F09CFFD9
:10C0700003E02146286808F011F90020BDE8F081AE
:10C0800070B504460D4605F00F006168884201D97D
:10C09000012070BD05F0800080280AD105F00F0056
:10C0A000C0EBC00104F13C0000EB81060120707080
:10C0B00007E0C5EBC50104F5FE7000EB810600202A
:10C0C00070700120B07005F00F00307000BF94F860
:10C0D000BC03012801D10220DBE7012084F8BC0366
:10C0E00000BF3146206808F08CF805F00F0020B939
:10C0F00004F57171206808F021F800BF002084F871
:10C10000BC0300BF00BFC4E72DE9F04105460E4661
:10C110001746984606F00F00C0EBC00105F13C0041
:10C1200000EB8104E760C4F814800020A0610120C6
:10C13000607006F00F00207006F00F0020B9214655
:10C14000286807F031FF03E02146286808F0A6F8C8
:10C150000020BDE8F08100002DE9F04F85B00446D5
:10C1600020680490049D05F1400003900398006846
:10C1700002900026206808F027FA00287DD1206868
:10C1800008F061FA10B905B000F026BB206808F08D
:10C190005AFA00F00200022805D12068406900F038
:10C1A000020021684861206808F04DFA00F4002080
:10C1B000B0F5002F6BD10026206808F014FA8346F2
:10C1C00062E00BF0010000285BD0F1B2206808F0BB
:10C1D0002DFA814609F0010028B3012105F53060F0
:10C1E00000EB46108160F749029888421CD1D5F8CF
:10C1F000080B00F4004038B14FF4004105F5306001
:10C2000000EB4610816013E0D5F8080B00F0200029
:10C2100028B1202105F5306000EB46108160F1B2B5
:10C220002046FFF718FE03E0F1B22046FFF713FEA9
:10C2300009F00800082818D1E249029888420BD179
:10C24000D5F8080B00F4004030B14FF4004105F57B
:10C25000306000EB46108160204600F055FC08215C
:10C2600005F5306000EB4610816009F010001028E1
:10C2700007D1102105F5306000E0A0E200EB461088
:10C280008160761C4FEA5B0BBBF1000F99D12068EF
:10C2900008F0D9F900F48020B0F5802F60D1206833
:10C2A00008F097F98346002657E00BF00100E8B349
:10C2B000F1B2206808F0A1F9814609F00100B8B197
:10C2C00006F00F0101208840019040F634004159EA
:10C2D000019821EA000040F634014851012105F59A
:10C2E000106000EB46108160F1B22046FFF7A3FD1D
:10C2F00009F00800082805D1082105F5106000EBB9
:10C300004610816009F01000102805D1102105F5B4
:10C31000106000EB4610816009F04000402807D112
:10C32000402105F5106000EB461000E012E081604E
:10C3300009F00200022805D1022105F5106000EB8A
:10C340004610816009F08000802803D131462046E4
:10C3500004F09CFB761C4FEA5B0BBBF1000FA4D1F1
:10C36000206808F070F900F00040B0F1004F1CD1D7
:10C3700040F60400405920F0010140F6040041510C
:10C3800094F8F403012807D1002084F8F403002175
:10C390002046FFF7E5FC02E0204600F077FB20682E
:10C3A000406900F0004021684861206808F04BF9BE
:10C3B00000F40060B0F5006F0ED140F6080040595F
:10C3C00000F0010010B1204600F0DEFB206840695B
:10C3D00000F4006021684861206808F034F900F03A
:10C3E0000060B0F1006F19D12068406900F0006072
:10C3F0002168486194F8F40368B9012084F8F403D3
:10C400002068406DC0F38300C4F8F8030121204682
:10C41000FFF7A6FC02E0204600F0B6FB206808F01B
:10C4200012F900F48050B0F5805F72D140F604003C
:10C43000405920F0010140F60400415110212068CC
:10C4400008F0AAF84FF0000827E04FF67F3105F515
:10C45000106000EB4810816005F5106000EB48109B
:10C46000006820F4001105F5106000EB4810016031
:10C470004FF67F3105F5306000EB4810816005F51F
:10C48000306000EB4810006820F4001105F53060C2
:10C4900000EB4810016008F1010860684045D4D8FD
:10C4A00040F61C00405940F0011140F61C0041517B
:10C4B000206B70B1D5F8840840F00B01C5F88418E2
:10C4C00040F64400405940F00B0140F64400415111
:10C4D0000EE040F61400405940F00B0140F6140005
:10C4E0004151001F405940F00B014FF40160415190
:10C4F000D5F8000820F4FE60C5F8000804F5717155
:10C50000206807F01BFE2068406900F48050216815
:10C510004861206808F097F800F40050B0F5005F1B
:10C5200078D1206807F070FB2068C06820F4705054
:10C530002168C8600321E1604021616100F078FF5B
:10C54000074621498F4209D32048874206D22068F6
:10C55000C06840F470502168C8607CE01B48874286
:10C5600009D31B48874206D22068C06840F4605057
:10C570002168C8606FE01648874209D31548874292
:10C5800006D22068C06840F450502168C86062E05C
:10C590001048874209D31048874206D22068C068F5
:10C5A00040F440502168C86055E00B48874217D3DB
:10C5B0000A48874214D22068C06840F4305021688D
:10C5C000C86048E00A31544FC0ACD800C0E1E40074
:10C5D0000024F40080730601A0491A01002D3101E6
:10C5E0007848874209D37848874206D22068C068D5
:10C5F00040F420502168C8602DE0734887420AD378
:10C600007248874207D22068C06840F41050216801
:10C61000C86020E028E06D48874209D36C48874213
:10C6200006D22068C06840F400502168C86012E05B
:10C630006748874209D36748874206D22068C068A6
:10C6400040F4E0502168C86005E02068C06840F40C
:10C65000C0502168C860204600F002FA2068406996
:10C6600000F4005021684861206807F0ECFF00F0FA
:10C670001000102847D12068806920F01000216840
:10C6800088610498D0F820A00AF00F00C0EBC00128
:10C6900004F5FE7000EB81000090CAF343400228CD
:10C6A0001AD147F6F0700AEA000030B30098CAF3D6
:10C6B0000A12C168049807F0CBFF0098C068CAF35B
:10C6C0000A1101440098C16000988069CAF30A11F8
:10C6D00001440098816110E0CAF3434006280CD160
:10C6E000082204F57171049807F0B2FF0098806980
:10C6F000CAF30A110144009881612068806940F002
:10C70000100021688861206807F09DFF00F0080094
:10C71000082808D1204600F0D5F92068406900F0CB
:10C72000080021684861206807F08DFF00F4801040
:10C73000B0F5801F09D1F1B2204600F050F8206812
:10C74000406900F4801021684861206807F07BFF91
:10C7500000F40010B0F5001F09D1F1B2204600F03E
:10C7600047F82068406900F400102168486120689B
:10C7700007F069FF00F08040B0F1804F08D12046FB
:10C78000FFF752FB2068406900F080402168486153
:10C79000206807F058FF00F0040004280FD120683B
:10C7A000D0F804A00AF00400042802D12046FFF7C4
:10C7B00075FB2068406840EA0A002168486000BFB5
:10C7C000E1E40000002D310140A44C0100366E016F
:10C7D00020ABA6010048E80130BCBDE8C08F70B5B1
:10C7E00004460D462946D4F8040406F069FD70BDE0
:10C7F00070B504460D462946D4F8040406F063FDDE
:10C8000070BD30B58BB0044614B901200BB030BDFB
:10C8100094F8BD0328B9002084F8BC03204600F03A
:10C82000D1F8032084F8BD03206807F0B5FB282267
:10C8300004F110016846FBF73DFD94E80F0007F096
:10C8400007FA0021206807F014FF002531E00121DC
:10C85000C5EBC50204F13C0000EB82004170C5EB62
:10C86000C50104F13C0000F82150C5EBC50100EB07
:10C870008100C5800021C5EBC50204F13C0000EB3E
:10C880008200C170C5EBC50204F13C0000EB8200E0
:10C890008160C5EBC50204F13C0000EB8200C16081
:10C8A000C5EBC50204F13C0000EB82004161681C4D
:10C8B000C5B20F2DCBD300252AE00021C5EBC50260
:10C8C00004F5FE7000EB82004170C5EBC50104F574
:10C8D000FE7000F821500021C5EBC50200EB82007C
:10C8E000C170C5EBC50204F5FE7000EB82008160EB
:10C8F000C5EBC50204F5FE7000EB8200C160C5EB1C
:10C90000C50204F5FE7000EB82004161681CC5B2EF
:10C910000F2DD2D3282204F110016846FBF7CAFC80
:10C9200094E80F0007F06AFA002084F8380001202C
:10C9300084F8BD03606A012802D12046FFF7FCF9A4
:10C94000A06A012802D12046FFF7EAF9206807F023
:10C9500045FA00205AE7000038B504462068B0F1D7
:10C96000A04F2CD11648C06C20F480501449C864E4
:10C970004FF4C0514FF09040FEF7D6FE1048806D46
:10C9800000F08050B0B900BF0D48806D40F080507D
:10C990000B4988650846806D00F08050009000BF0C
:10C9A00000BF00F07BF90648806D20F080500449FC
:10C9B000886501E000F072F94320FFF71FF938BDE8
:10C9C0000010024010B586B004462068B0F1A04FB8
:10C9D00042D14FF4C05001900220029000200390F9
:10C9E000032004900A20059001A94FF09040FEF723
:10C9F0003DFF00BF1948C06C40F480501749C8641F
:10CA00000846C06C00F48050009000BF00BF08468C
:10CA1000806D00F08050A8B900BF0846806D40F0DE
:10CA2000805088650846806D00F08050009000BFFF
:10CA300000BF00F047F90948806D20F08050074999
:10CA4000886501E000F03EF9002211464320FFF71F
:10CA5000F0F84320FFF7E0F806B010BD00100240E8
:10CA600070B504460125E068022801D100BF01E04D
:10CA7000012500BF00BF2946D4F8040406F0CEFC0F
:10CA8000D4F8040406F084FC70BD000010B5044620
:10CA90002068D0F8000E20F001002168C1F8000ED7
:10CAA000206A38B10648006820F006000449086092
:10CAB00004F0E0FED4F8040406F098FC10BD000079
:10CAC00010ED00E010B50446D4F8040406F095FC1F
:10CAD00010BD70B504460D4600BF94F8BC03012894
:10CAE00001D1022070BD012084F8BC0300BF84F88E
:10CAF00038502946206807F0D7FD00BF002084F891
:10CB0000BC0300BF00BFEDE710B5044604F571712A
:10CB1000D4F8040406F0A8FC10BD10B5044600BF0C
:10CB200094F8BC03012801D1022010BD012084F833
:10CB3000BC0300BF206807F041F9206807F00EFD34
:10CB400000BF002084F8BC0300BF00BFEDE710B5B4
:10CB5000044600BF94F8BC03012801D1022010BD97
:10CB6000012084F8BC0300BF206807F015FA206894
:10CB700007F0B8FD206807F031F900BF002084F805
:10CB8000BC0300BF00BFEAE710B504462068D0F838
:10CB9000000E40F001002168C1F8000ED4F8040432
:10CBA00006F0F7FC206A28B10348006840F0060050
:10CBB0000149086010BD000010ED00E00246B2F52A
:10CBC000007F2AD11D48006800F4C060B0F5007FE6
:10CBD00032D01A48006820F4C06040F40070174B4F
:10CBE00018601748006832235843164BB0FBF3F027
:10CBF000411C00E0491E1148406900F48060B0F516
:10CC0000806F01D10029F5D10C48406900F48060A3
:10CC1000B0F5806F10D1032070470848006800F419
:10CC2000C060B0F5806F07D00448006820F4C06091
:10CC300040F48060014B18600020EDE70070004078
:10CC40001C01002040420F001148006820F4804081
:10CC50000F4A10600F480068322250430E4AB0FB62
:10CC6000F2F0411C00E0491E0948406900F40070E0
:10CC7000B0F5007F01D10029F5D10548406900F4E5
:10CC80000070B0F5007F01D1032070470020FCE761
:10CC9000007000401C01002040420F000348406823
:10CCA00020F4806001494860704700000070004037
:10CCB0000348006840F48040014908607047000064
:10CCC000007000400348406840F4806001494860BB
:10CCD00070470000007000400D49096821F007010D
:10CCE000891C0B4A11600B49096841F00401094A8B
:10CCF0001160012801D130BF02E040BF20BF20BF3A
:10CD00000449096821F00401024A116070470000DB
:10CD10000070004010ED00E00248006800F4C060C0
:10CD200070470000007000400348006840F48070C5
:10CD30000149086070470000007000400849C96858
:10CD400000F01F02914341EA5011054AD16011469B
:10CD5000896800F01F021143014A9160704700008A
:10CD60000070004070B504460D4654B91048406943
:10CD700000F40070B0F5007F0AD1FFF765FF38B10D
:10CD800070BD0B484069C0F3402008B9FFF790FF21
:10CD90000848006820F0040006490860012D01D110
:10CDA00030BF02E040BF20BF20BF00BFE8E7000067
:10CDB0000070004010ED00E00848006820F0070017
:10CDC000C01C064908600648006840F00400044999
:10CDD000086000BF00BF30BF704700000070004017
:10CDE00010ED00E02DE9F84304460025A846208810
:10CDF00000F40060B0F5006F30D1606E80B1B0F526
:10CE0000800F13D0B0F5000F03D0B0F5400F15D14F
:10CE100013E0FB48C06840F48030F949C8600FE077
:10CE20000021201D03F0C4FF054609E0002104F1A4
:10CE3000200004F083F8054602E001E0012500BF70
:10CE400000BF55B9EE488830006820F44000616E9C
:10CE50000843EB49C1F8880000E0A846208800F4A8
:10CE60008050B0F5805F30D1A06E80B1B0F1807F8E
:10CE700013D0B0F1007F03D0B0F1407F15D113E0A3
:10CE8000DF48C06840F48030DD49C8600FE0002111
:10CE9000201D03F08DFF054609E0002104F120006C
:10CEA00004F04CF8054602E001E0012500BF00BF98
:10CEB00055B9D3488830006820F04070A16E08430F
:10CEC000CF49C1F8880000E0A846206800F400308F
:10CED000B0F5003F77D14FF00009C948806D0121BE
:10CEE00021EA107078B100BFC548806D40F08050D5
:10CEF000C34988650846806D00F08050009000BFEF
:10CF000000BF4FF00109BF48006840F48070BD4980
:10CF10000860FEF7BBFD074606E0FEF7B7FDC01B45
:10CF2000022801D9032505E0B648006800F48070A6
:10CF30000028F2D000BF85BBB1489030006800F4F3
:10CF40004076D6B1D4F88400B04216D0AC489030C8
:10CF5000006820F44076AA48D0F8900040F4803071
:10CF6000A749C1F890000846D0F8900020F480301E
:10CF7000C1F890000846C0F8906006F00100A8B122
:10CF8000FEF784FD074609E0FEF780FDC01B41F275
:10CF90008831884202D9032507E017E0984890308D
:10CFA000006800F002000028EED000BF65B9944888
:10CFB0009030006820F44070D4F884100843904901
:10CFC000C1F8900003E00CE0A84600E0A846B9F1E3
:10CFD000010F05D18A48806D20F08050884988650E
:10CFE00000BF207800F0010048B185488830006813
:10CFF00020F00300A16B08438149C1F88800207824
:10D0000000F00200022809D17D488830006820F035
:10D010000C00E16B08437A49C1F88800207800F0E1
:10D020000400042809D176488830006820F03000D8
:10D03000216C08437249C1F88800207800F008008C
:10D04000082809D16E488830006820F0C000616C63
:10D0500008436B49C1F88800207800F010001028C0
:10D0600009D167488830006820F44070A16C0843FB
:10D070006349C1F88800207800F02000202809D1F9
:10D080005F488830006820F44060E16C08435C49E8
:10D09000C1F88800208800F40070B0F5007F09D145
:10D0A00057488830006820F44020E16D0843544917
:10D0B000C1F88800208800F48060B0F5806F09D145
:10D0C0004F488830006820F44010216E08434C49D6
:10D0D000C1F88800207800F04000402809D1484875
:10D0E0008830006820F44050216D08434449C1F85D
:10D0F0008800207800F08000802809D140488830DE
:10D10000006820F44040616D08433D49C1F8880043
:10D11000208800F48070B0F5807F09D138488830CD
:10D12000006820F44030A16D08433549C1F88800FB
:10D13000208800F40050B0F5005F1FD130488830DF
:10D14000006820F04060E16E08432D498831086096
:10D15000E06EB0F1006F06D12948C06840F480103D
:10D160002749C8600AE0E06EB0F1806F06D1012166
:10D17000201D03F01DFE054605B1A846206800F4F9
:10D180000020B0F5002F1FD11D488830006820F026
:10D190004060216F08431A4988310860206FB0F160
:10D1A000006F06D11648C06840F480101449C8606A
:10D1B0000AE0206FB0F1806F06D10121201D03F03D
:10D1C000F7FD054605B1A846206800F48020B0F5BB
:10D1D000802F24D10A488830006820F04060616FB9
:10D1E0000843074988310860606FB0F1006F0BD1C8
:10D1F0000348C06840F480100149C8600FE0000097
:10D200000010024000700040606FB0F1806F06D1E6
:10D210000121201D03F0CCFD054605B1A84620885C
:10D2200000F48040B0F5804F1FD12248006820F004
:10D230004050A16F08431F490860A06FB0F1805FA4
:10D2400007D10221201D03F0B3FD05466DB1A846AC
:10D250000BE0A06FB0F1005F07D1022104F12000C4
:10D2600003F06CFE054605B1A846208800F4004096
:10D27000B0F5004F09D10F48006820F08040E16F01
:10D2800008430C498839C1F88800206800F48030D0
:10D29000B0F5803F0AD10748006820F00040D4F87C
:10D2A0008010084303498839C1F888004046BDE82A
:10D2B000F8830000881002402DE9F04104460D4635
:10D2C00014B90120BDE8F0815548006800F007005E
:10D2D000A8420ED25248006820F007002843504967
:10D2E00008600846006800F00700A84201D001204D
:10D2F000E8E7207800F00100002840D060680328AB
:10D3000006D14848006800F00070D8B90120D9E77C
:10D310006068022806D14348006800F4003088B9EC
:10D320000120CFE7606830B93E48006800F0020095
:10D3300040B90120C6E73B48006800F4806008B9A6
:10D340000120BFE73748806820F003006168084388
:10D3500034498860FEF79AFB064608E0FEF796FB24
:10D36000801B41F28831884201D90320AAE72D4869
:10D37000806800F00C006168B0EB810FEED120787E
:10D3800000F00200022807D12648806820F0F00053
:10D39000A1680843234988602148006800F007001D
:10D3A000A8420ED91E48006820F0070028431C49F7
:10D3B00008600846006800F00700A84201D001207C
:10D3C00080E7207800F00400042807D11548806821
:10D3D00020F4E060E168084312498860207800F09A
:10D3E0000800082808D10F48806820F4605021699F
:10D3F00040EAC1000B49886000F044F80949896897
:10D40000C1F30311084A515C01F01F01C8400749EC
:10D4100008600020FEF790FB0746384652E7000000
:10D420000020024000100240B47702081C010020D6
:10D4300001480068704700001C01002000B5FFF79C
:10D44000F7FF05498968C1F30221044A515C01F0E4
:10D450001F01C84000BD000000100240C477020850
:10D4600000B5FFF7E5FF05498968C1F3C221044A09
:10D47000515C01F01F01C84000BD000000100240D7
:10D48000C47702082DE9F04100240020DFF800C134
:10D49000DCF808C00CF00C01DFF8F4C0DCF80CC0BC
:10D4A0000CF0030719B10C291ED1012F1CD1DFF894
:10D4B000E0C0DCF800C00CF0080CBCF1000F06D195
:10D4C000DFF8CCC0DCF894C0CCF3032405E0DFF82F
:10D4D000C0C0DCF800C0CCF30314DFF8B8C05CF8BF
:10D4E000244041B9204606E0042901D12A4802E03F
:10D4F000082900D128480C2947D1DFF894C0DCF86E
:10D500000CC00CF00305DFF888C0DCF80CC0CCF3CD
:10D51000021C0CF10103012D1FD0022D02D0032D9E
:10D520001AD10CE0DFF870C0BCFBF3FCDFF86080C0
:10D53000D8F80C80C8F306280CFB08F218E0DFF8D6
:10D5400058C0BCFBF3FCDFF84880D8F80C80C8F367
:10D5500006280CFB08F20BE000BFB4FBF3FCDFF87D
:10D560003080D8F80C80C8F306280CFB08F200BF06
:10D5700000BFDFF81CC0DCF80CC0CCF3416C0CF130
:10D58000010C4FEA4C06B2FBF6F0BDE8F08100005A
:10D5900000100240CC7702080024F4002DE9F84383
:10D5A000044614B90120BDE8F883F848806800F00B
:10D5B0000C06F648C06800F00307207800F0100061
:10D5C000102875D11EB10C2E74D1012F72D1EF48E5
:10D5D000006800F0020018B1A06908B90120E2E774
:10D5E000EA48216A006800F0080020B1E7480068B6
:10D5F00000F0F00005E0E5489430006800F4706049
:10D60000000981421FD9206A03F04AFD08B10120B8
:10D61000C9E700BFDD48006840F00800DB4908604A
:10D620000846006820F0F000216A0843D7490860E6
:10D6300000BF0846406820F47F40E16940EA0120CD
:10D64000D24948601EE000BFD048006840F00800A2
:10D65000CE4908600846006820F0F000216A0843BF
:10D66000CA49086000BF0846406820F47F40E1696D
:10D6700040EA0120C5494860206A03F011FD08B165
:10D68000012090E7FFF7FEFEC0498968C1F303114E
:10D69000BF4A515C01F01F01C840BE49086000202C
:10D6A000FEF74AFA8046B8F1000F4ED040467AE7BE
:10D6B0004BE0FFE7A06980B3B448006840F0010088
:10D6C000B2490860FEF7E2F9054606E0FEF7DEF92A
:10D6D000401B022801D9032065E7AC48006800F030
:10D6E00002000028F2D000BFA848006840F00800FF
:10D6F000A64908600846006820F0F000216A084347
:10D70000A249086000BF0846406820F47F40E169F4
:10D7100040EA01209D49486017E0FFE79B48006808
:10D7200020F0010099490860FEF7B0F9054606E0CF
:10D73000FEF7ACF9401B022801D9032033E79348D8
:10D74000006800F002000028F2D1207800F001000B
:10D7500000285CD0082E03D00C2E0AD1032F08D14C
:10D760008A48006800F4003088B3606878BB012004
:10D7700019E700BF6068B0F5803F06D183480068B4
:10D7800040F48030814908601AE06068B0F5A02F4D
:10D790000BD17E48006840F480207C490860084630
:10D7A000006840F4803008600AE07848006820F49F
:10D7B0008030764908600846006820F480200860C0
:10D7C00000BF606890B1FEF761F9054607E01EE012
:10D7D000FEF75CF9401B642801D90320E3E66B489F
:10D7E000006800F400300028F2D010E0FEF74EF997
:10D7F000054606E0FEF74AF9401B642801D90320DC
:10D80000D1E66248006800F400300028F2D12078A8
:10D8100000F00200022852D1042E03D00C2E14D1A5
:10D82000022F12D15948006800F4806018B1E068F6
:10D8300008B90120B7E65548406820F0F850217C2F
:10D8400040EA01605149486039E0E06800B34F4860
:10D85000006840F480704D490860FEF717F90546EE
:10D8600006E0FEF713F9401B022801D903209AE6CF
:10D870004648006800F480600028F2D043484068C1
:10D8800020F0F850217C40EA01604049486016E0F1
:10D890003E48006820F480703C490860FEF7F6F8C6
:10D8A000054606E0FEF7F2F8401B022801D90320E6
:10D8B00079E63648006800F480600028F2D12078CC
:10D8C00000F00800082836D16069D0B12F489430A4
:10D8D000006840F001002D49C1F89400FEF7D6F829
:10D8E000054606E0FEF7D2F8401B022801D90320C6
:10D8F00059E626489430006800F002000028F1D074
:10D9000019E022489430006820F001001F49C1F856
:10D910009400FEF7BBF8054606E0FEF7B7F8401B9B
:10D92000022801D903203EE618489430006800F030
:10D9300002000028F1D1207800F00400042870D102
:10D940004FF000091148806D00F0805078B900BF99
:10D950000E48806D40F080500C4988650846806D07
:10D9600000F08050009000BF00BF4FF001090A484E
:10D97000006800F48070F0B90748006840F48070D7
:10D9800005490860FEF782F805460EE000100240E7
:10D99000B47702081C01002000700040FEF776F802
:10D9A000401B022801D90320FDE57C48006800F4F3
:10D9B00080700028F2D000BFA068012808D1784804
:10D9C000006840F0010076499039C1F8900021E0EC
:10D9D000A06805280FD17248006840F00400704923
:10D9E0009039C1F890000846D0F8900040F001004E
:10D9F000C1F890000EE06A48006820F00100684914
:10DA00009039C1F890000846D0F8900020F004004A
:10DA1000C1F8900000BFA068A0B1FEF737F8054636
:10DA200009E02EE0FEF732F8401B41F288318842CF
:10DA300001D90320B7E55A48006800F00200002829
:10DA4000F0D012E0FEF722F8054608E0FEF71EF8D7
:10DA5000401B41F28831884201D90320A3E5504898
:10DA6000006800F002000028F0D1B9F1010F07D1E1
:10DA70004B489038806D20F0805049499039886536
:10DA800000BFA06AF0B30C2E74D0A06A022853D154
:10DA900043489038006820F0807041499039086010
:10DAA000FDF7F4FF054606E0FDF7F0FF401B0228F6
:10DAB00001D9032077E53A489038006800F00070FB
:10DAC0000028F1D1206B401E0101606B41EA00216A
:10DAD000A06B000941EA4040E16A0843A18F01229E
